{
  "address": "0xF27e9169c8f8Ead1cd3577F2C17bC2Aa7E80E901",
  "abi": [
    {
      "inputs": [
        {
          "internalType": "uint256",
          "name": "_locktime",
          "type": "uint256"
        },
        {
          "internalType": "address",
          "name": "datafeedAddr",
          "type": "address"
        }
      ],
      "stateMutability": "nonpayable",
      "type": "constructor"
    },
    {
      "inputs": [],
      "name": "dataFeed",
      "outputs": [
        {
          "internalType": "contract AggregatorV3Interface",
          "name": "",
          "type": "address"
        }
      ],
      "stateMutability": "view",
      "type": "function"
    },
    {
      "inputs": [],
      "name": "fundMe",
      "outputs": [],
      "stateMutability": "payable",
      "type": "function"
    },
    {
      "inputs": [
        {
          "internalType": "address",
          "name": "",
          "type": "address"
        }
      ],
      "name": "fundToAmount",
      "outputs": [
        {
          "internalType": "uint256",
          "name": "",
          "type": "uint256"
        }
      ],
      "stateMutability": "view",
      "type": "function"
    },
    {
      "inputs": [],
      "name": "getChainlinkDataFeedLatestAnswer",
      "outputs": [
        {
          "internalType": "int256",
          "name": "",
          "type": "int256"
        }
      ],
      "stateMutability": "view",
      "type": "function"
    },
    {
      "inputs": [],
      "name": "getFund",
      "outputs": [],
      "stateMutability": "nonpayable",
      "type": "function"
    },
    {
      "inputs": [],
      "name": "getFundSuccess",
      "outputs": [
        {
          "internalType": "bool",
          "name": "",
          "type": "bool"
        }
      ],
      "stateMutability": "view",
      "type": "function"
    },
    {
      "inputs": [],
      "name": "owner",
      "outputs": [
        {
          "internalType": "address",
          "name": "",
          "type": "address"
        }
      ],
      "stateMutability": "view",
      "type": "function"
    },
    {
      "inputs": [],
      "name": "refund",
      "outputs": [],
      "stateMutability": "nonpayable",
      "type": "function"
    },
    {
      "inputs": [
        {
          "internalType": "address",
          "name": "_erc20Addr",
          "type": "address"
        }
      ],
      "name": "setErc20Address",
      "outputs": [],
      "stateMutability": "nonpayable",
      "type": "function"
    },
    {
      "inputs": [
        {
          "internalType": "address",
          "name": "funder",
          "type": "address"
        },
        {
          "internalType": "uint256",
          "name": "amountToUpdate",
          "type": "uint256"
        }
      ],
      "name": "setNameAndSymbol",
      "outputs": [],
      "stateMutability": "nonpayable",
      "type": "function"
    },
    {
      "inputs": [
        {
          "internalType": "address",
          "name": "newOwner",
          "type": "address"
        }
      ],
      "name": "transferOwnership",
      "outputs": [],
      "stateMutability": "nonpayable",
      "type": "function"
    }
  ],
  "transactionHash": "0xe74c33cde4c3d8c85bb933d8e7d675c269c024b461984de2b033c6e116d7d568",
  "args": [
    20,
    "0x694AA1769357215DE4FAC081bf1f309aDC325306"
  ],
  "numDeployments": 1,
  "solcInputHash": "485099ca03dc043ed83e0ed138c681a4",
  "bytecode": "0x60806040526000600560146101000a81548160ff02191690831515021790555034801561002b57600080fd5b506040516113b63803806113b6833981810160405281019061004d919061017d565b80600160006101000a81548173ffffffffffffffffffffffffffffffffffffffff021916908373ffffffffffffffffffffffffffffffffffffffff16021790555033600260006101000a81548173ffffffffffffffffffffffffffffffffffffffff021916908373ffffffffffffffffffffffffffffffffffffffff160217905550426003819055508160048190555050506101bd565b600080fd5b6000819050919050565b6100fc816100e9565b811461010757600080fd5b50565b600081519050610119816100f3565b92915050565b600073ffffffffffffffffffffffffffffffffffffffff82169050919050565b600061014a8261011f565b9050919050565b61015a8161013f565b811461016557600080fd5b50565b60008151905061017781610151565b92915050565b60008060408385031215610194576101936100e4565b5b60006101a28582860161010a565b92505060206101b385828601610168565b9150509250929050565b6111ea806101cc6000396000f3fe60806040526004361061009c5760003560e01c80639e42ff90116100645780639e42ff9014610160578063b6a324e01461018b578063bea4dfb514610195578063da4658e0146101c0578063f2fde38b146101eb578063fbcbfd6f146102145761009c565b80631c79f12d146100a15780634a39fa80146100de578063590e1ae3146101075780638da5cb5b1461011e5780638edd6eb614610149575b600080fd5b3480156100ad57600080fd5b506100c860048036038101906100c39190610a65565b61023d565b6040516100d59190610aab565b60405180910390f35b3480156100ea57600080fd5b5061010560048036038101906101009190610a65565b610255565b005b34801561011357600080fd5b5061011c610329565b005b34801561012a57600080fd5b50610133610580565b6040516101409190610ad5565b60405180910390f35b34801561015557600080fd5b5061015e6105a6565b005b34801561016c57600080fd5b506101756106b6565b6040516101829190610b4f565b60405180910390f35b6101936106dc565b005b3480156101a157600080fd5b506101aa610773565b6040516101b79190610b83565b60405180910390f35b3480156101cc57600080fd5b506101d5610814565b6040516101e29190610bb9565b60405180910390f35b3480156101f757600080fd5b50610212600480360381019061020d9190610a65565b610827565b005b34801561022057600080fd5b5061023b60048036038101906102369190610c00565b6108fb565b005b60006020528060005260406000206000915090505481565b600260009054906101000a900473ffffffffffffffffffffffffffffffffffffffff1673ffffffffffffffffffffffffffffffffffffffff163373ffffffffffffffffffffffffffffffffffffffff16146102e5576040517f08c379a00000000000000000000000000000000000000000000000000000000081526004016102dc90610cc3565b60405180910390fd5b80600560006101000a81548173ffffffffffffffffffffffffffffffffffffffff021916908373ffffffffffffffffffffffffffffffffffffffff16021790555050565b6004546003546103399190610d12565b42101561037b576040517f08c379a000000000000000000000000000000000000000000000000000000000815260040161037290610d92565b60405180910390fd5b66470de4df82000061038c476109d2565b106103cc576040517f08c379a00000000000000000000000000000000000000000000000000000000081526004016103c390610dfe565b60405180910390fd5b60008060003373ffffffffffffffffffffffffffffffffffffffff1673ffffffffffffffffffffffffffffffffffffffff168152602001908152602001600020540361044d576040517f08c379a000000000000000000000000000000000000000000000000000000000815260040161044490610e6a565b60405180910390fd5b60003373ffffffffffffffffffffffffffffffffffffffff166000803373ffffffffffffffffffffffffffffffffffffffff1673ffffffffffffffffffffffffffffffffffffffff168152602001908152602001600020546040516104b190610ebb565b60006040518083038185875af1925050503d80600081146104ee576040519150601f19603f3d011682016040523d82523d6000602084013e6104f3565b606091505b50508091505080610539576040517f08c379a000000000000000000000000000000000000000000000000000000000815260040161053090610f1c565b60405180910390fd5b60008060003373ffffffffffffffffffffffffffffffffffffffff1673ffffffffffffffffffffffffffffffffffffffff1681526020019081526020016000208190555050565b600260009054906101000a900473ffffffffffffffffffffffffffffffffffffffff1681565b60003373ffffffffffffffffffffffffffffffffffffffff16476040516105cc90610ebb565b60006040518083038185875af1925050503d8060008114610609576040519150601f19603f3d011682016040523d82523d6000602084013e61060e565b606091505b50508091505080610654576040517f08c379a000000000000000000000000000000000000000000000000000000000815260040161064b90610f1c565b60405180910390fd5b60008060003373ffffffffffffffffffffffffffffffffffffffff1673ffffffffffffffffffffffffffffffffffffffff168152602001908152602001600020819055506001600560146101000a81548160ff02191690831515021790555050565b600160009054906101000a900473ffffffffffffffffffffffffffffffffffffffff1681565b662386f26fc100006106ed346109d2565b101561072e576040517f08c379a000000000000000000000000000000000000000000000000000000000815260040161072590610f88565b60405180910390fd5b346000803373ffffffffffffffffffffffffffffffffffffffff1673ffffffffffffffffffffffffffffffffffffffff16815260200190815260200160002081905550565b600080600160009054906101000a900473ffffffffffffffffffffffffffffffffffffffff1673ffffffffffffffffffffffffffffffffffffffff1663feaf968c6040518163ffffffff1660e01b815260040160a060405180830381865afa1580156107e3573d6000803e3d6000fd5b505050506040513d601f19601f82011682018060405250810190610807919061102b565b5050509150508091505090565b600560149054906101000a900460ff1681565b600260009054906101000a900473ffffffffffffffffffffffffffffffffffffffff1673ffffffffffffffffffffffffffffffffffffffff163373ffffffffffffffffffffffffffffffffffffffff16146108b7576040517f08c379a00000000000000000000000000000000000000000000000000000000081526004016108ae90610cc3565b60405180910390fd5b80600260006101000a81548173ffffffffffffffffffffffffffffffffffffffff021916908373ffffffffffffffffffffffffffffffffffffffff16021790555050565b600260009054906101000a900473ffffffffffffffffffffffffffffffffffffffff1673ffffffffffffffffffffffffffffffffffffffff163373ffffffffffffffffffffffffffffffffffffffff161461098b576040517f08c379a0000000000000000000000000000000000000000000000000000000008152600401610982906110f2565b60405180910390fd5b806000808473ffffffffffffffffffffffffffffffffffffffff1673ffffffffffffffffffffffffffffffffffffffff168152602001908152602001600020819055505050565b6000806109dd610773565b90506305f5e10081846109f09190611112565b6109fa9190611183565b915050919050565b600080fd5b600073ffffffffffffffffffffffffffffffffffffffff82169050919050565b6000610a3282610a07565b9050919050565b610a4281610a27565b8114610a4d57600080fd5b50565b600081359050610a5f81610a39565b92915050565b600060208284031215610a7b57610a7a610a02565b5b6000610a8984828501610a50565b91505092915050565b6000819050919050565b610aa581610a92565b82525050565b6000602082019050610ac06000830184610a9c565b92915050565b610acf81610a27565b82525050565b6000602082019050610aea6000830184610ac6565b92915050565b6000819050919050565b6000610b15610b10610b0b84610a07565b610af0565b610a07565b9050919050565b6000610b2782610afa565b9050919050565b6000610b3982610b1c565b9050919050565b610b4981610b2e565b82525050565b6000602082019050610b646000830184610b40565b92915050565b6000819050919050565b610b7d81610b6a565b82525050565b6000602082019050610b986000830184610b74565b92915050565b60008115159050919050565b610bb381610b9e565b82525050565b6000602082019050610bce6000830184610baa565b92915050565b610bdd81610a92565b8114610be857600080fd5b50565b600081359050610bfa81610bd4565b92915050565b60008060408385031215610c1757610c16610a02565b5b6000610c2585828601610a50565b9250506020610c3685828601610beb565b9150509250929050565b600082825260208201905092915050565b7f746869732066756e6374696f6e2063616e206f6e6c792062652063616c6c656460008201527f206279206f776e65720000000000000000000000000000000000000000000000602082015250565b6000610cad602983610c40565b9150610cb882610c51565b604082019050919050565b60006020820190508181036000830152610cdc81610ca0565b9050919050565b7f4e487b7100000000000000000000000000000000000000000000000000000000600052601160045260246000fd5b6000610d1d82610a92565b9150610d2883610a92565b9250828201905080821115610d4057610d3f610ce3565b5b92915050565b7f77696e646f777320697320636c6f736500000000000000000000000000000000600082015250565b6000610d7c601083610c40565b9150610d8782610d46565b602082019050919050565b60006020820190508181036000830152610dab81610d6f565b9050919050565b7f5461726765742069732072656163686564000000000000000000000000000000600082015250565b6000610de8601183610c40565b9150610df382610db2565b602082019050919050565b60006020820190508181036000830152610e1781610ddb565b9050919050565b7f7468657265206973206e6f2066756e6420666f7220796f750000000000000000600082015250565b6000610e54601883610c40565b9150610e5f82610e1e565b602082019050919050565b60006020820190508181036000830152610e8381610e47565b9050919050565b600081905092915050565b50565b6000610ea5600083610e8a565b9150610eb082610e95565b600082019050919050565b6000610ec682610e98565b9150819050919050565b7f7472616e73666572207478206661696c65640000000000000000000000000000600082015250565b6000610f06601283610c40565b9150610f1182610ed0565b602082019050919050565b60006020820190508181036000830152610f3581610ef9565b9050919050565b7f73656e64206d6f72652065746800000000000000000000000000000000000000600082015250565b6000610f72600d83610c40565b9150610f7d82610f3c565b602082019050919050565b60006020820190508181036000830152610fa181610f65565b9050919050565b600069ffffffffffffffffffff82169050919050565b610fc781610fa8565b8114610fd257600080fd5b50565b600081519050610fe481610fbe565b92915050565b610ff381610b6a565b8114610ffe57600080fd5b50565b60008151905061101081610fea565b92915050565b60008151905061102581610bd4565b92915050565b600080600080600060a0868803121561104757611046610a02565b5b600061105588828901610fd5565b955050602061106688828901611001565b945050604061107788828901611016565b935050606061108888828901611016565b925050608061109988828901610fd5565b9150509295509295909350565b7f6f6e6c79206f776e65722063616e20646f207468697300000000000000000000600082015250565b60006110dc601683610c40565b91506110e7826110a6565b602082019050919050565b6000602082019050818103600083015261110b816110cf565b9050919050565b600061111d82610a92565b915061112883610a92565b925082820261113681610a92565b9150828204841483151761114d5761114c610ce3565b5b5092915050565b7f4e487b7100000000000000000000000000000000000000000000000000000000600052601260045260246000fd5b600061118e82610a92565b915061119983610a92565b9250826111a9576111a8611154565b5b82820490509291505056fea264697066735822122045800bf4f16ea57c11656afbb29c259f9d9bc33dbf90ec98ae8d02b77be51bb464736f6c634300081c0033",
  "devdoc": {
    "kind": "dev",
    "methods": {},
    "version": 1
  },
  "userdoc": {
    "kind": "user",
    "methods": {
      "getChainlinkDataFeedLatestAnswer()": {
        "notice": "Returns the latest answer."
      }
    },
    "version": 1
  },
  "storageLayout": {
    "storage": [
      {
        "astId": 53,
        "contract": "contracts/FundMe.sol:FundMe",
        "label": "fundToAmount",
        "offset": 0,
        "slot": "0",
        "type": "t_mapping(t_address,t_uint256)"
      },
      {
        "astId": 63,
        "contract": "contracts/FundMe.sol:FundMe",
        "label": "dataFeed",
        "offset": 0,
        "slot": "1",
        "type": "t_contract(AggregatorV3Interface)45"
      },
      {
        "astId": 72,
        "contract": "contracts/FundMe.sol:FundMe",
        "label": "owner",
        "offset": 0,
        "slot": "2",
        "type": "t_address"
      },
      {
        "astId": 74,
        "contract": "contracts/FundMe.sol:FundMe",
        "label": "deploymentTimestamp",
        "offset": 0,
        "slot": "3",
        "type": "t_uint256"
      },
      {
        "astId": 76,
        "contract": "contracts/FundMe.sol:FundMe",
        "label": "locktime",
        "offset": 0,
        "slot": "4",
        "type": "t_uint256"
      },
      {
        "astId": 78,
        "contract": "contracts/FundMe.sol:FundMe",
        "label": "erc20Addr",
        "offset": 0,
        "slot": "5",
        "type": "t_address"
      },
      {
        "astId": 81,
        "contract": "contracts/FundMe.sol:FundMe",
        "label": "getFundSuccess",
        "offset": 20,
        "slot": "5",
        "type": "t_bool"
      }
    ],
    "types": {
      "t_address": {
        "encoding": "inplace",
        "label": "address",
        "numberOfBytes": "20"
      },
      "t_bool": {
        "encoding": "inplace",
        "label": "bool",
        "numberOfBytes": "1"
      },
      "t_contract(AggregatorV3Interface)45": {
        "encoding": "inplace",
        "label": "contract AggregatorV3Interface",
        "numberOfBytes": "20"
      },
      "t_mapping(t_address,t_uint256)": {
        "encoding": "mapping",
        "key": "t_address",
        "label": "mapping(address => uint256)",
        "numberOfBytes": "32",
        "value": "t_uint256"
      },
      "t_uint256": {
        "encoding": "inplace",
        "label": "uint256",
        "numberOfBytes": "32"
      }
    }
  }
}